:100000000C9472000C948B000C948B000C948B005D
:100010000C948B000C948B000C948B000C948B0034
:100020000C948B000C948B000C948B000C948B0024
:100030000C948B000C948B000C948B000C948B0014
:100040000C948B000C9416020C943E020C948B00C2
:100050000C94E5010C94FC000C942A010C948D0086
:100060000C948B000C948B000C948B000C948B00E4
:100070000C948B000C948B000C948B000C948B00D4
:100080000C948B000C948B000C948B000C948B00C4
:100090000C948B000C948B000C948B000C948B00B4
:1000A0000C948B000C948B000C948B000C948B00A4
:1000B0000C948B000C948B000C948B000C948B0094
:1000C0000C948B000C948B000C948B000C948B0084
:1000D0000C948B000C948B000C948B000C948B0074
:1000E0000C948B0011241FBECFEFD1E2DEBFCDBF39
:1000F00000E00CBF12E0A0E0B2E0E6E7FEE000E0C6
:100100000BBF02C007900D92A230B107D9F70E9431
:1001100009050C9439070C9400001F920F920FB63A
:100120000F9211240BB60F922F938F939F93EF93FF
:10013000FF93CF93DF93CDB7DEB787E490E0FC0168
:1001400080818823C9F488E490E0FC0180818823C1
:1001500099F482E091E0FC01208182E091E02F7B24
:10016000FC01208381E390E0FC01208181E390E0A9
:100170002F7DFC01208331C087E490E0FC01808169
:10018000882399F081E390E0FC01208181E390E0F5
:100190002F7DFC01208382E091E0FC01208182E040
:1001A00091E02064FC01208318C088E490E0FC0109
:1001B0008081882391F082E091E0FC01208182E03F
:1001C00091E02F7BFC01208381E390E0FC01208102
:1001D00081E390E02062FC0120830000DF91CF9159
:1001E000FF91EF919F918F912F910F900BBE0F90E8
:1001F0000FBE0F901F9018951F920F920FB60F927F
:1002000011240BB60F922F938F939F93EF93FF932D
:10021000CF93DF93CDB7DEB787E490E0FC01808118
:100220008F3F49F082E091E0FC01208182E091E083
:100230002F7BFC0120830000DF91CF91FF91EF9194
:100240009F918F912F910F900BBE0F900FBE0F902B
:100250001F9018951F920F920FB60F9211240BB694
:100260000F922F938F939F93EF93FF93CF93DF93EF
:10027000CDB7DEB788E490E0FC0180818F3F49F084
:1002800081E390E0FC01208181E390E02F7DFC017F
:1002900020830000DF91CF91FF91EF919F918F918B
:1002A0002F910F900BBE0F900FBE0F901F901895BF
:1002B000CF93DF93CDB7DEB781E091E0FC012081E1
:1002C00081E091E02064FC01208380E390E0FC0168
:1002D000208180E390E02062FC01208382E091E0B5
:1002E000FC01208182E091E02F7BFC01208381E3EF
:1002F00090E0FC01208181E390E02F7DFC012083D0
:1003000084E490E0FC01108285E490E023E0FC01AD
:10031000208387E490E0FC01108288E490E0FC01F7
:1003200010828EE690E027E0FC01208378940000A4
:10033000DF91CF910895CF93DF930F92CDB7DEB7C2
:10034000898389818C39E4F18981843609F0C4F587
:1003500089818823DCF088E490E0FC0110828981A7
:10036000082E000C990B2FEF289FA001299F500DFC
:10037000112424E630E0CA01B9010E944C05CB01EA
:100380009C0187E490E0FC0120831AC087E490E0A0
:10039000FC0110828981082E000C990B2FEF289FF9
:1003A000A001299F500D11242CE93FEFCA01B9018A
:1003B0000E944C05CB019C0188E490E0FC01208365
:1003C00000000F90DF91CF9108951F920F920FB60A
:1003D0000F9211240BB60F922F933F938F939F93FD
:1003E000EF93FF93CF93DF93CDB7DEB784E890E030
:1003F00024E234E6FC013183208382E091E0FC01B9
:10040000208182E091E02062FC0120830000DF91E6
:10041000CF91FF91EF919F918F913F912F910F90ED
:100420000BBE0F900FBE0F901F9018951F920F924A
:100430000FB60F9211240BB60F922F938F939F93A9
:10044000EF93FF93CF93DF93CDB7DEB782E091E0D8
:10045000FC01208182E091E02F7DFC0120830000DF
:10046000DF91CF91FF91EF919F918F912F910F90FD
:100470000BBE0F900FBE0F901F9018951F920F92FA
:100480000FB60F921124CF93DF93CDB7DEB70000E4
:10049000DF91CF910F900FBE0F901F901895CF93C3
:1004A000DF93CDB7DEB781E091E0FC01208181E0F0
:1004B00091E02062FC01208380E890E0FC01108242
:1004C00081E890E022E0FC0120838FE690E027E0C5
:1004D000FC01208384E890E024E234E6FC013183CF
:1004E000208380E00E94790278940000DF91CF9110
:1004F00008950F931F93CF93DF93CDB7DEB76D971A
:100500000FB6F894DEBF0FBECDBF898389818C39C9
:100510000CF457C08981843611F00CF052C08981E7
:10052000282F880F330B440B550B2E873F87488BA2
:10053000598B6E857F85888999890E9417066A8301
:100540007B838C839D8320E030E040E251E46A812C
:100550007B818C819D810E94CC066A8B7B8B8C8BEE
:100560009D8B8A899B89AC89BD898E839F83A8874F
:10057000B98720E038EB4FED56E46E817F818885A6
:1005800099850E9475056E8B7F8B888F998F2E8938
:100590003F89488D598D2A873B874C875D8708E8BE
:1005A00010E06A857B858C859D850E94E6056A8FB3
:1005B0007B8F8C8F9D8F8A8D9B8DD80111969C93FC
:1005C0008E9300006D960FB6F894DEBF0FBECDBFC0
:1005D000DF91CF911F910F910895CF93DF93CDB706
:1005E000DEB782E30E949B010000DF91CF91089566
:1005F000CF93DF93CDB7DEB70000DF91CF910895A1
:10060000CF93DF93CDB7DEB7A2970FB6F894DEBFD6
:100610000FBECDBF86EF0E949B0180E090E0A0E27C
:10062000B1E489839A83AB83BC8320E030E04AE75E
:1006300055E469817A818B819C810E94CC066B8B09
:100640007C8B8D8B9E8B8B899C89AD89BE898D839C
:100650009E83AF83B88720E030E040E85FE36D81A0
:100660007E818F8198850E94E10588232CF481E0AA
:1006700090E09A87898755C020E03FEF4FE757E425
:100680006D817E818F8198850E94C7068823D9F16C
:10069000D4F120E030E040E251E469817A818B813D
:1006A0009C810E94CC066F8B788F898F9A8F8F895F
:1006B000988DA98DBA8D8F87988BA98BBA8B6F85F2
:1006C000788989899A890E94E6056B8F7C8F8D8F46
:1006D0009E8FAB8DBC8DBA87A98710C080E991E051
:1006E0009C878B878B859C850197F1F79C878B87EF
:1006F000000089859A8501979A87898789859A85D7
:10070000009761F719C06D817E818F8198850E9465
:10071000E6056F8F78A389A39AA38F8D98A19A87F6
:10072000898789859A859E878D878D859E85019786
:10073000F1F79E878D87000080E00E949B010000FA
:10074000A2960FB6F894DEBF0FBECDBFDF91CF915A
:100750000895CF93DF93CDB7DEB70000DF91CF913F
:100760000895CF93DF93CDB7DEB7A2970FB6F89475
:10077000DEBF0FBECDBF8CE90E94790280E090E021
:10078000A8E4B3E489839A83AB83BC8320E030E0A0
:100790004AE755E469817A818B819C810E94CC066D
:1007A0006B8B7C8B8D8B9E8B8B899C89AD89BE8955
:1007B0008D839E83AF83B88720E030E040E85FE31D
:1007C0006D817E818F8198850E94E10588232CF4BC
:1007D00081E090E09A87898755C020E03FEF4FE79E
:1007E00057E46D817E818F8198850E94C70688239A
:1007F000D9F1D4F120E030E040E251E469817A811E
:100800008B819C810E94CC066F8B788F898F9A8F09
:100810008F89988DA98DBA8D8F87988BA98BBA8B6C
:100820006F85788989899A890E94E6056B8F7C8F0C
:100830008D8F9E8FAB8DBC8DBA87A98710C080E944
:1008400091E09C878B878B859C850197F1F79C872E
:100850008B87000089859A8501979A878987898582
:100860009A85009761F719C06D817E818F81988587
:100870000E94E6056F8F78A389A39AA38F8D98A114
:100880009A87898789859A859E878D878D859E859C
:100890000197F1F79E878D8700000E9459040000A0
:1008A000A2960FB6F894DEBF0FBECDBFDF91CF91F9
:1008B0000895CF93DF93CDB7DEB7A2970FB6F89424
:1008C000DEBF0FBECDBF84E60E94790280E090E0DB
:1008D000A8E4B3E489839A83AB83BC8320E030E04F
:1008E0004AE755E469817A818B819C810E94CC061C
:1008F0006B8B7C8B8D8B9E8B8B899C89AD89BE8904
:100900008D839E83AF83B88720E030E040E85FE3CB
:100910006D817E818F8198850E94E10588232CF46A
:1009200081E090E09A87898755C020E03FEF4FE74C
:1009300057E46D817E818F8198850E94C706882348
:10094000D9F1D4F120E030E040E251E469817A81CC
:100950008B819C810E94CC066F8B788F898F9A8FB8
:100960008F89988DA98DBA8D8F87988BA98BBA8B1B
:100970006F85788989899A890E94E6056B8F7C8FBB
:100980008D8F9E8FAB8DBC8DBA87A98710C080E9F3
:1009900091E09C878B878B859C850197F1F79C87DD
:1009A0008B87000089859A8501979A878987898531
:1009B0009A85009761F719C06D817E818F81988536
:1009C0000E94E6056F8F78A389A39AA38F8D98A1C3
:1009D0009A87898789859A859E878D878D859E854B
:1009E0000197F1F79E878D8700000E94B1030000F8
:1009F000A2960FB6F894DEBF0FBECDBFDF91CF91A8
:100A00000895CF93DF93CDB7DEB70000DF91CF918C
:100A10000895CF93DF93CDB7DEB70E944F02809148
:100A20000002909101028530910589F18530910590
:100A300009F0ACF78430910539F18430910509F063
:100A400074F78330910531F18330910509F03CF75B
:100A500082309105A1F08230910509F004F70097EA
:100A600021F08130910521F0DACF0E94000313C0FC
:100A70000E94ED020E94F8020E9401050CC00E9433
:100A800000030E94A90307C00E94B10304C00E9492
:100A9000590401C00000C3CF97FB072E16F4009441
:100AA00007D077FD09D00E94600507FC05D03EF411
:100AB000909581959F4F0895709561957F4F08950A
:100AC000AA1BBB1B51E107C0AA1FBB1FA617B70774
:100AD00010F0A61BB70B881F991F5A95A9F7809590
:100AE0009095BC01CD0108955058BB27AA270E94BC
:100AF0008C050C948D060E947F0638F00E948606B5
:100B000020F039F49F3F19F426F40C947C060EF47F
:100B1000E095E7FB0C947606E92F0E949E0658F3B9
:100B2000BA17620773078407950720F079F4A6F5D2
:100B30000C94C0060EF4E0950B2EBA2FA02D0B01DD
:100B4000B90190010C01CA01A0011124FF27591B12
:100B500099F0593F50F4503E68F11A16F040A22F18
:100B6000232F342F4427585FF3CF46953795279589
:100B7000A795F0405395C9F77EF41F16BA0B620B88
:100B8000730B840BBAF09150A1F0FF0FBB1F661FCF
:100B9000771F881FC2F70EC0BA0F621F731F841F12
:100BA00048F4879577956795B795F7959E3F08F038
:100BB000B0CF9395880F08F09927EE0F97958795FA
:100BC00008950E94520608F481E008950E94A60646
:100BD00088F09F5798F0B92F9927B751B0F0E1F0FE
:100BE000660F771F881F991F1AF0BA95C9F714C0AE
:100BF000B13091F00E94C006B1E008950C94C00697
:100C0000672F782F8827B85F39F0B93FCCF38695E6
:100C100077956795B395D9F73EF490958095709543
:100C200061957F4F8F4F9F4F0895E89409C097FBC0
:100C30003EF490958095709561957F4F8F4F9F4FB3
:100C40009923A9F0F92F96E9BB279395F6958795F7
:100C500077956795B795F111F8CFFAF4BB0F11F4BA
:100C600060FF1BC06F5F7F4F8F4F9F4F16C0882361
:100C700011F096E911C0772321F09EE8872F762F97
:100C800005C0662371F096E8862F70E060E02AF0D8
:100C90009A95660F771F881FDAF7880F96958795C4
:100CA00097F90895990F0008550FAA0BE0E8FEEF99
:100CB00016161706E807F907C0F012161306E40720
:100CC000F50798F0621B730B840B950B39F40A2619
:100CD00061F0232B242B252B21F408950A2609F4F7
:100CE000A140A6958FEF811D811D089597F99F67FB
:100CF00080E870E060E008959FEF80EC08950024A4
:100D00000A941616170618060906089500240A9470
:100D100012161306140605060895092E0394000CF6
:100D200011F4882352F0BB0F40F4BF2B11F460FF85
:100D300004C06F5F7F4F8F4F9F4F089557FD9058AE
:100D4000440F551F59F05F3F71F04795880F97FB8F
:100D5000991F61F09F3F79F0879508951216130649
:100D60001406551FF2CF4695F1DF08C01616170678
:100D70001806991FF1CF86957105610508940895AD
:100D8000E894BB2766277727CB0197F908950E943F
:100D9000520608F48FEF08950E94DF060C948D062A
:100DA0000E947F0638F00E94860620F0952311F0FD
:100DB0000C9476060C947C0611240C94C1060E94B7
:100DC0009E0670F3959FC1F3950F50E0551F629FEB
:100DD000F001729FBB27F00DB11D639FAA27F00D94
:100DE000B11DAA1F649F6627B00DA11D661F829FBB
:100DF0002227B00DA11D621F739FB00DA11D621FA0
:100E0000839FA00D611D221F749F3327A00D611DBC
:100E1000231F849F600D211D822F762F6A2F11249E
:100E20009F5750409AF0F1F088234AF0EE0FFF1FD1
:100E3000BB1F661F771F881F91505040A9F79E3F28
:100E4000510580F00C9476060C94C1065F3FE4F3E4
:100E5000983ED4F3869577956795B795F795E7957E
:100E60009F5FC1F7FE2B880F911D9695879597F987
:060E70000895F894FFCF85
:020E7600050075
:00000001FF
