:100000000C9472000C948B000C948B000C948B005D
:100010000C948B000C948B000C948B000C948B0034
:100020000C948B000C948B000C948B000C948B0024
:100030000C948B000C948B000C948B000C948B0014
:100040000C948B000C940D020C948B000C948B0080
:100050000C94E5010C94FC000C942A010C948D0086
:100060000C948B000C948B000C948B000C948B00E4
:100070000C948B000C948B000C948B000C948B00D4
:100080000C948B000C948B000C948B000C948B00C4
:100090000C948B000C948B000C948B000C948B00B4
:1000A0000C948B000C948B000C948B000C948B00A4
:1000B0000C948B000C948B000C948B000C948B0094
:1000C0000C948B000C948B000C948B000C948B0084
:1000D0000C948B000C948B000C948B000C948B0074
:1000E0000C948B0011241FBECFEFD1E2DEBFCDBF39
:1000F00000E00CBF12E0A0E0B2E0EEE2F6E000E0CB
:100100000BBF02C007900D92A230B107D9F70E9431
:100110008A020C9415030C9400001F920F920FB6E4
:100120000F9211240BB60F922F938F939F93EF93FF
:10013000FF93CF93DF93CDB7DEB787E490E0FC0168
:1001400080818823C9F488E490E0FC0180818823C1
:1001500099F482E091E0FC01208182E091E02F7B24
:10016000FC01208381E390E0FC01208181E390E0A9
:100170002F7DFC01208331C087E490E0FC01808169
:10018000882399F081E390E0FC01208181E390E0F5
:100190002F7DFC01208382E091E0FC01208182E040
:1001A00091E02064FC01208318C088E490E0FC0109
:1001B0008081882391F082E091E0FC01208182E03F
:1001C00091E02F7BFC01208381E390E0FC01208102
:1001D00081E390E02062FC0120830000DF91CF9159
:1001E000FF91EF919F918F912F910F900BBE0F90E8
:1001F0000FBE0F901F9018951F920F920FB60F927F
:1002000011240BB60F922F938F939F93EF93FF932D
:10021000CF93DF93CDB7DEB787E490E0FC01808118
:100220008F3F49F082E091E0FC01208182E091E083
:100230002F7BFC0120830000DF91CF91FF91EF9194
:100240009F918F912F910F900BBE0F900FBE0F902B
:100250001F9018951F920F920FB60F9211240BB694
:100260000F922F938F939F93EF93FF93CF93DF93EF
:10027000CDB7DEB788E490E0FC0180818F3F49F084
:1002800081E390E0FC01208181E390E02F7DFC017F
:1002900020830000DF91CF91FF91EF919F918F918B
:1002A0002F910F900BBE0F900FBE0F901F901895BF
:1002B000CF93DF93CDB7DEB781E091E0FC012081E1
:1002C00081E091E02064FC01208380E390E0FC0168
:1002D000208180E390E02062FC01208382E091E0B5
:1002E000FC01208182E091E02F7BFC01208381E3EF
:1002F00090E0FC01208181E390E02F7DFC012083D0
:1003000084E490E0FC01108285E490E023E0FC01AD
:10031000208387E490E0FC01108288E490E0FC01F7
:1003200010828EE690E027E0FC01208378940000A4
:10033000DF91CF910895CF93DF930F92CDB7DEB7C2
:10034000898389818C39E4F18981843609F0C4F587
:1003500089818823DCF088E490E0FC0110828981A7
:10036000082E000C990B2FEF289FA001299F500DFC
:10037000112424E630E0CA01B9010E94ED02CB014C
:100380009C0187E490E0FC0120831AC087E490E0A0
:10039000FC0110828981082E000C990B2FEF289FF9
:1003A000A001299F500D11242CE93FEFCA01B9018A
:1003B0000E94ED02CB019C0188E490E0FC012083C7
:1003C00000000F90DF91CF9108951F920F920FB60A
:1003D0000F9211240BB60F922F938F939F93EF934D
:1003E000FF93CF93DF93CDB7DEB782E091E0FC01BE
:1003F000208182E091E02062FC0120830000DF91F7
:10040000CF91FF91EF919F918F912F910F900BBE04
:100410000F900FBE0F901F9018951F920F920FB65E
:100420000F9211240BB60F922F938F939F93EF93FC
:10043000FF93CF93DF93CDB7DEB782E091E0FC016D
:10044000208182E091E02F7DFC0120830000DF917C
:10045000CF91FF91EF919F918F912F910F900BBEB4
:100460000F900FBE0F901F901895CF93DF93CDB7CD
:10047000DEB782E30E949B010000DF91CF910895D7
:10048000CF93DF93CDB7DEB70000DF91CF91089512
:10049000CF93DF93CDB7DEB780E00E949B010000D1
:1004A000DF91CF910895CF93DF93CDB7DEB70000F2
:1004B000DF91CF910895CF93DF93CDB7DEB70000E2
:1004C000DF91CF910895CF93DF93CDB7DEB70000D2
:1004D000DF91CF910895CF93DF93CDB7DEB784E856
:1004E00090E020EC33E6FC013183208388E890E043
:1004F00020E633E7FC01318320838FE690E0FC01A6
:1005000020818FE690E02360FC0120830000DF91D2
:10051000CF910895CF93DF93CDB7DEB70E945801F6
:1005200080E890E0FC01108281E890E0FC012081ED
:1005300081E890E02260FC012083789481E091E0E2
:10054000FC01208181E091E02062FC01208382E0B7
:1005500091E0FC01208182E091E02F7DFC0120836D
:1005600080910002909101028530910589F18530DA
:10057000910509F0ACF78430910539F1843091058B
:1005800009F074F78330910531F18330910509F05A
:100590003CF782309105A1F08230910509F004F713
:1005A000009721F08130910521F0DACF0E944802B6
:1005B00013C00E9435020E9440020E946B020CC0D0
:1005C0000E9448020E94530207C00E945B0204C0BE
:1005D0000E94630201C00000C3CF97FB072E16F4F0
:1005E000009407D077FD09D00E94010307FC05D0D5
:1005F0003EF4909581959F4F0895709561957F4F3A
:100600000895AA1BBB1B51E107C0AA1FBB1FA61759
:10061000B70710F0A61BB70B881F991F5A95A9F7AB
:0E06200080959095BC01CD010895F894FFCF10
:02062E000100C9
:00000001FF
