:100000000C9472000C9486000C9486000C9486006C
:100010000C9486000C9486000C9486000C94860048
:100020000C9486000C9486000C9486000C94860038
:100030000C9486000C9486000C9486000C94860028
:100040000C9486000C9411020C9439020C948600D6
:100050000C94E0010C94F7000C9425010C9488009A
:100060000C9486000C9486000C9486000C948600F8
:100070000C9486000C9486000C9486000C948600E8
:100080000C9486000C9486000C9486000C948600D8
:100090000C9486000C9486000C9486000C948600C8
:1000A0000C9486000C9486000C9486000C948600B8
:1000B0000C9486000C9486000C9486000C948600A8
:1000C0000C9486000C9486000C9486000C94860098
:1000D0000C9486000C9486000C9486000C94860088
:1000E0000C94860011241FBECFEFD1E2DEBFCDBF3E
:1000F00000E00CBF22E0A0E0B2E001C01D92A630FB
:10010000B207E1F70E9466070C94C1090C94000045
:100110001F920F920FB60F9211240BB60F922F93CE
:100120008F939F93EF93FF93CF93DF93CDB7DEB77A
:1001300087E490E0FC0180818823C9F488E490E0A2
:10014000FC018081882399F485E290E0FC01208104
:1001500085E290E02F7BFC01208385E290E0FC01AA
:10016000208185E290E02F77FC01208331C087E475
:1001700090E0FC018081882399F085E290E0FC0109
:10018000208185E290E02F77FC01208385E290E0DA
:10019000FC01208185E290E02064FC01208318C0EE
:1001A00088E490E0FC018081882391F085E290E072
:1001B000FC01208185E290E02F7BFC01208385E219
:1001C00090E0FC01208185E290E02068FC01208322
:1001D0000000DF91CF91FF91EF919F918F912F912F
:1001E0000F900BBE0F900FBE0F901F9018951F928F
:1001F0000F920FB60F9211240BB60F922F938F937D
:100200009F93EF93FF93CF93DF93CDB7DEB787E450
:1002100090E0FC0180818F3F49F085E290E0FC0195
:10022000208185E290E02F7BFC0120830000DF919C
:10023000CF91FF91EF919F918F912F910F900BBED6
:100240000F900FBE0F901F9018951F920F920FB630
:100250000F9211240BB60F922F938F939F93EF93CE
:10026000FF93CF93DF93CDB7DEB788E490E0FC0136
:1002700080818F3F49F085E290E0FC01208185E29A
:1002800090E02F77FC0120830000DF91CF91FF9158
:10029000EF919F918F912F910F900BBE0F900FBEFA
:1002A0000F901F901895CF93DF93CDB7DEB784E200
:1002B00090E0FC01208184E290E02064FC01208336
:1002C00084E290E0FC01208184E290E02068FC015F
:1002D000208385E290E0FC01208185E290E02F7B85
:1002E000FC01208385E290E0FC01208185E290E022
:1002F0002F77FC01208384E490E0FC01108285E4E8
:1003000090E023E0FC01208387E490E0FC01108270
:1003100088E490E0FC0110828EE690E027E0FC018A
:10032000208378940000DF91CF910895CF93DF93DD
:100330000F92CDB7DEB7898389818C39E4F1898149
:10034000843609F0C4F589818823DCF088E490E0E4
:10035000FC0110828981082E000C990B2FEF289F39
:10036000A001299F500D112424E630E0CA01B901F3
:100370000E94D407CB019C0187E490E0FC0120831C
:100380001AC087E490E0FC0110828981082E000CDD
:10039000990B2FEF289FA001299F500D11242CE9C4
:1003A0003FEFCA01B9010E94D407CB019C0188E448
:1003B00090E0FC01208300000F90DF91CF91089521
:1003C0001F920F920FB60F9211240BB60F922F931C
:1003D0003F938F939F93EF93FF93CF93DF93CDB78B
:1003E000DEB784E890E024E234E6FC013183208328
:1003F00085E290E0FC01208185E290E02062FC0132
:1004000020830000DF91CF91FF91EF919F918F9119
:100410003F912F910F900BBE0F900FBE0F901F902A
:1004200018951F920F920FB60F9211240BB60F92D0
:100430002F938F939F93EF93FF93CF93DF93CDB73A
:10044000DEB785E290E0FC01208185E290E02F7D1F
:10045000FC0120830000DF91CF91FF91EF919F91EC
:100460008F912F910F900BBE0F900FBE0F901F908A
:1004700018951F920F920FB60F921124CF93DF930E
:10048000CDB7DEB70000DF91CF910F900FBE0F9078
:100490001F901895CF93DF93CDB7DEB784E290E03D
:1004A000FC01208184E290E02062FC01208380E84E
:1004B00090E0FC01108281E890E022E0FC012083C2
:1004C0008FE690E027E0FC01208384E890E024E2BE
:1004D00034E6FC013183208380E00E94740278942A
:1004E0000000DF91CF9108950F931F93CF93DF9377
:1004F000CDB7DEB76D970FB6F894DEBF0FBECDBF98
:10050000898389818C390CF457C08981843611F034
:100510000CF052C08981282F880F330B440B550BE8
:100520002E873F87488B598B6E857F85888999896F
:100530000E949F086A837B838C839D8320E030E048
:1005400040E251E46A817B818C819D810E94540943
:100550006A8B7B8B8C8B9D8B8A899B89AC89BD89AF
:100560008E839F83A887B98720E038EB4FED56E450
:100570006E817F81888599850E94FD076E8B7F8BB8
:10058000888F998F2E893F89488D598D2A873B877F
:100590004C875D8708E810E06A857B858C859D85A2
:1005A0000E946E086A8F7B8F8C8F9D8F8A8D9B8DAA
:1005B000D80111969C938E9300006D960FB6F89417
:1005C000DEBF0FBECDBFDF91CF911F910F91089578
:1005D000CF93DF93CDB7DEB780E390E0FC012081BD
:1005E00080E390E02E7FFC01208381E390E0FC011A
:1005F000208181E390E02160FC01208380E390E092
:10060000FC01208180E390E02D7FFC01208381E3C9
:1006100090E0FC01208181E390E02260FC012083D6
:1006200080E390E0FC01208180E390E02B7FFC01DF
:10063000208381E390E0FC01208181E390E024604D
:10064000FC01208380E390E0FC01208180E390E0C6
:10065000277FFC01208381E390E0FC01208181E37E
:1006600090E02860FC01208380E390E0FC01208181
:1006700080E390E02F7EFC01208381E390E0FC0189
:10068000208181E390E02061FC01208380E390E001
:10069000FC01208180E390E02F7DFC01208381E339
:1006A00090E0FC01208181E390E02062FC01208346
:1006B00084E290E0FC01208184E290E02160FC0172
:1006C000208385E290E0FC01208185E290E02E7F8E
:1006D000FC01208384E290E0FC01208184E290E030
:1006E0002260FC01208385E290E0FC01208185E20C
:1006F00090E02D7FFC0120830000DF91CF910895D1
:10070000CF93DF93CDB7DEB78FE290E0FC0180811D
:10071000882F90E081709927009781F48FE290E014
:10072000FC018081882F90E082709927009731F436
:1007300081E090E090930102809300028FE290E0CC
:10074000FC018081882F90E081709927009731F01B
:1007500085E090E090930102809300028FE290E0A8
:10076000FC018081882F90E082709927009731F0FA
:1007700084E090E090930102809300028FE290E089
:10078000FC0180810000DF91CF910895CF93DF932A
:10079000CDB7DEB78FE290E0FC0180810000DF91F1
:1007A000CF910895CF93DF93CDB7DEB782E30E9458
:1007B00096010000DF91CF910895CF93DF93CDB7DD
:1007C000DEB78091020290910302009709F0BCF419
:1007D0008FE290E0FC018081882F90E0847099275F
:1007E0000097B1F482E090E09093010280930002C0
:1007F0008CE291E0909303028093020209C0809101
:1008000002029091030201979093030280930202E7
:100810008091040290910502009709F0BCF48FE2E8
:1008200090E0FC018081882F90E0887099270097E4
:10083000B1F482E090E090930102809300028CE298
:1008400091E0909305028093040209C08091040214
:100850009091050201979093050280930402000095
:10086000DF91CF910895CF93DF93CDB7DEB780E0CE
:100870000E9496010000DF91CF910895CF93DF93FE
:10088000CDB7DEB7C858D1090FB6F894DEBF0FBE9A
:10089000CDBF85E290E0DC012C9185E290E0216003
:1008A000FC01208380E090E0AAEFB3E48BA79CA733
:1008B000ADA7BEA720E030E04AE755E46BA57CA5D4
:1008C0008DA59EA50E9454092D966CAF7DAF8EAF6D
:1008D0009FAF2D972D968CAD9DADAEADBFAD2D9735
:1008E0008FA798ABA9ABBAAB20E030E040E85FE35C
:1008F0006FA578A989A99AA90E94690888232CF470
:1009000081E090E09CAB8BAB66C020E03FEF4FE70F
:1009100057E46FA578A989A99AA90E944F0988234D
:1009200009F00CF446C020E030E040E251E46BA551
:100930007CA58DA59EA50E94540961966CAF7DAFE4
:100940008EAF9FAF619761968CAD9DADAEADBFADE3
:10095000619729968CAF9DAFAEAFBFAF299729960F
:100960006CAD7DAD8EAD9FAD29970E946E086596EA
:100970006CAF7DAF8EAF9FAF65976396AEADBFADE9
:100980006397BCABABAB10C080E991E09EAB8DAB85
:100990008DA99EA90197F1F79EAB8DAB00008BA9A5
:1009A0009CA901979CAB8BAB8BA99CA9009761F785
:1009B0001DC06FA578A989A99AA90E946E08699699
:1009C0006CAF7DAF8EAF9FAF69976796EEADFFAD11
:1009D0006797FCABEBAB8BA99CA998AF8FAB8FA9AA
:1009E00098AD0197F1F798AF8FAB000085E290E0EA
:1009F000DC012C9185E290E02E7FFC01208385E2D2
:100A000090E0DC012C9185E290E02260FC012083E3
:100A100080E090E0AAEFB3E48D8F9E8FAF8FB8A3F4
:100A200020E030E04AE755E46D8D7E8D8F8D98A1F2
:100A30000E9454096D966CAF7DAF8EAF9FAF6D97DE
:100A40006D968CAD9DADAEADBFAD6D9789A39AA3EC
:100A5000ABA3BCA320E030E040E85FE369A17AA14A
:100A60008BA19CA10E94690888232CF481E090E06E
:100A70009EA38DA366C020E03FEF4FE757E469A136
:100A80007AA18BA19CA10E944F09882309F00CF444
:100A900046C020E030E040E251E46D8D7E8D8F8DC8
:100AA00098A10E945409A1966CAF7DAF8EAF9FAF05
:100AB000A197A1968CAD9DADAEADBFADA19725968A
:100AC0008CAF9DAFAEAFBFAF259725966CAD7DAD1A
:100AD0008EAD9FAD25970E946E08A5966CAF7DAF39
:100AE0008EAF9FAFA597A396AEADBFADA397BEA3A4
:100AF000ADA310C080E991E098A78FA38FA198A51E
:100B00000197F1F798A78FA300008DA19EA10197EF
:100B10009EA38DA38DA19EA1009761F71DC069A121
:100B20007AA18BA19CA10E946E08A9966CAF7DAFA3
:100B30008EAF9FAFA997A796EEADFFADA797FEA387
:100B4000EDA38DA19EA19AA789A789A59AA5019732
:100B5000F1F79AA789A7000085E290E0DC012C91CB
:100B600085E290E02160FC01208385E290E0DC01D9
:100B70002C9185E290E02D7FFC01208380E090E0C5
:100B8000AAEFB3E48F87988BA98BBA8B20E030E073
:100B90004AE755E46F85788989899A890E945409C2
:100BA000AD966CAF7DAF8EAF9FAFAD97AD968CAD70
:100BB0009DADAEADBFADAD978B8B9C8BAD8BBE8B22
:100BC00020E030E040E85FE36B897C898D899E8975
:100BD0000E94690888232CF481E090E0988F8F8B25
:100BE00066C020E03FEF4FE757E46B897C898D8931
:100BF0009E890E944F09882309F00CF446C020E02A
:100C000030E040E251E46F85788989899A890E94B1
:100C10005409E1966CAF7DAF8EAF9FAFE197E1963F
:100C20008CAD9DADAEADBFADE19721968CAF9DAFC4
:100C3000AEAFBFAF219721966CAD7DAD8EAD9FADB0
:100C400021970E946E08E5966CAF7DAF8EAF9FAF87
:100C5000E597E396AEADBFADE397B88FAF8B10C00D
:100C600080E991E09A8F898F898D9A8D0197F1F7AC
:100C70009A8F898F00008F89988D0197988F8F8B1D
:100C80008F89988D009761F71DC06B897C898D894C
:100C90009E890E946E08E9966CAF7DAF8EAF9FAFC4
:100CA000E997E796EEADFFADE797F88FEF8B8F8969
:100CB000988D9C8F8B8F8B8D9C8D0197F1F79C8FDE
:100CC0008B8F000085E290E0DC012C9185E290E0C2
:100CD0002E7FFC01208385E290E0DC012C9185E2EF
:100CE00090E02260FC01208380E090E0AAEFB3E472
:100CF00089839A83AB83BC8320E030E04AE755E4E4
:100D000069817A818B819C810E945409ED966CAF38
:100D10007DAF8EAF9FAFED97ED968CAD9DADAEAD37
:100D2000BFADED978D839E83AF83B88720E030E021
:100D300040E85FE36D817E818F8198850E9469081C
:100D400088232CF481E090E09A8789876EC020E0A8
:100D50003FEF4FE757E46D817E818F8198850E9438
:100D60004F09882309F00CF44AC020E030E040E24B
:100D700051E469817A818B819C810E945409C35816
:100D8000DF4F688379838A839B83CD57D040C358D4
:100D9000DF4F88819981AA81BB81CD57D04089AF2F
:100DA0009AAFABAFBCAF69AD7AAD8BAD9CAD0E94D5
:100DB0006E08CF57DF4F688379838A839B83C1583E
:100DC000D040CF57DF4FA881B981C158D040BA87F2
:100DD000A98710C080E991E09C878B878B859C85D3
:100DE0000197F1F79C878B87000089859A85019789
:100DF0009A87898789859A85009761F721C06D81D7
:100E00007E818F8198850E946E08CB57DF4F688363
:100E100079838A839B83C558D040CB57DF4FE881C5
:100E2000F981C558D040FA87E98789859A859E87D8
:100E30008D878D859E850197F1F79E878D870000B0
:100E400085E290E0DC012C9185E290E02E7FFC01B0
:100E5000208385E290E0DC012C9185E290E02D7FFB
:100E6000FC0120830000C857DF4F0FB6F894DEBFA7
:100E70000FBECDBFDF91CF910895CF93DF93CDB754
:100E8000DEB78CEE0E9474020000DF91CF910895CE
:100E9000CF93DF93CDB7DEB784E10E9474020000E8
:100EA000DF91CF910895CF93DF93CDB7DEB780E088
:100EB0000E9474020000DF91CF910895CF93DF93D9
:100EC000CDB7DEB70000DF91CF910895CF93DF93C8
:100ED000CDB7DEB70E9453010E944A020E94E80289
:100EE00081E090E0909301028093000280910002E3
:100EF000909101028530910509F44CC0853091052F
:100F000009F074F784309105E1F18430910509F01E
:100F10003CF78330910571F18330910509F004F7B6
:100F200082309105E1F08230910509F0CCF600970E
:100F300021F08130910541F036C00E9433040E94B7
:100F400080030E94C6032FC00E9453070E94D20351
:100F50000E9480030E94DD030E94C60324C00E94F9
:100F600033040E943E040E94D2030E9480030E9428
:100F7000C60319C00E945E070E9480030E94C60338
:100F800012C00E943D070E9480030E94DD030E9460
:100F9000C60309C00E9448070E9480030E94DD0327
:100FA0000E94C60300009CCF97FB072E16F4009406
:100FB00007D077FD09D00E94E80707FC05D03EF472
:100FC000909581959F4F0895709561957F4F0895F5
:100FD000AA1BBB1B51E107C0AA1FBB1FA617B7075F
:100FE00010F0A61BB70B881F991F5A95A9F780957B
:100FF0009095BC01CD0108955058BB27AA270E94A7
:1010000014080C9415090E94070938F00E940E0973
:1010100020F039F49F3F19F426F40C9404090EF4DF
:10102000E095E7FB0C94FE08E92F0E94260958F38F
:10103000BA17620773078407950720F079F4A6F5BD
:101040000C9448090EF4E0950B2EBA2FA02D0B013D
:10105000B90190010C01CA01A0011124FF27591BFD
:1010600099F0593F50F4503E68F11A16F040A22F03
:10107000232F342F4427585FF3CF46953795279574
:10108000A795F0405395C9F77EF41F16BA0B620B73
:10109000730B840BBAF09150A1F0FF0FBB1F661FBA
:1010A000771F881FC2F70EC0BA0F621F731F841FFD
:1010B00048F4879577956795B795F7959E3F08F023
:1010C000B0CF9395880F08F09927EE0F97958795E5
:1010D00008950E94DA0808F481E008950E942E091C
:1010E00088F09F5798F0B92F9927B751B0F0E1F0E9
:1010F000660F771F881F991F1AF0BA95C9F714C099
:10110000B13091F00E944809B1E008950C9448096B
:10111000672F782F8827B85F39F0B93FCCF38695D1
:1011200077956795B395D9F73EF49095809570952E
:1011300061957F4F8F4F9F4F0895E89409C097FBAB
:101140003EF490958095709561957F4F8F4F9F4F9E
:101150009923A9F0F92F96E9BB279395F6958795E2
:1011600077956795B795F111F8CFFAF4BB0F11F4A5
:1011700060FF1BC06F5F7F4F8F4F9F4F16C088234C
:1011800011F096E911C0772321F09EE8872F762F82
:1011900005C0662371F096E8862F70E060E02AF0C3
:1011A0009A95660F771F881FDAF7880F96958795AF
:1011B00097F90895990F0008550FAA0BE0E8FEEF84
:1011C00016161706E807F907C0F012161306E4070B
:1011D000F50798F0621B730B840B950B39F40A2604
:1011E00061F0232B242B252B21F408950A2609F4E2
:1011F000A140A6958FEF811D811D089597F99F67E6
:1012000080E870E060E008959FEF80EC089500248E
:101210000A941616170618060906089500240A945B
:1012200012161306140605060895092E0394000CE1
:1012300011F4882352F0BB0F40F4BF2B11F460FF70
:1012400004C06F5F7F4F8F4F9F4F089557FD905899
:10125000440F551F59F05F3F71F04795880F97FB7A
:10126000991F61F09F3F79F0879508951216130634
:101270001406551FF2CF4695F1DF08C01616170663
:101280001806991FF1CF8695710561050894089598
:10129000E894BB2766277727CB0197F908950E942A
:1012A000DA0808F48FEF08950E9467090C94150975
:1012B0000E94070938F00E940E0920F0952311F0D2
:1012C0000C94FE080C94040911240C9449090E9402
:1012D000260970F3959FC1F3950F50E0551F629F4B
:1012E000F001729FBB27F00DB11D639FAA27F00D7F
:1012F000B11DAA1F649F6627B00DA11D661F829FA6
:101300002227B00DA11D621F739FB00DA11D621F8A
:10131000839FA00D611D221F749F3327A00D611DA7
:10132000231F849F600D211D822F762F6A2F112489
:101330009F5750409AF0F1F088234AF0EE0FFF1FBC
:10134000BB1F661F771F881F91505040A9F79E3F13
:10135000510580F00C94FE080C9449095F3FE4F3BA
:10136000983ED4F3869577956795B795F795E79569
:101370009F5FC1F7FE2B880F911D9695879597F972
:061380000895F894FFCF70
:00000001FF
