:100000000C9472000C9486000C9486000C9486006C
:100010000C9486000C9486000C9486000C94860048
:100020000C9486000C9486000C9486000C94860038
:100030000C9486000C9486000C9486000C94860028
:100040000C9486000C9486000C9486000C94860018
:100050000C9486000C94F7000C9425010C948800F5
:100060000C9486000C9486000C9486000C948600F8
:100070000C9486000C9486000C9486000C948600E8
:100080000C9486000C9486000C9486000C948600D8
:100090000C9486000C9486000C9486000C948600C8
:1000A0000C9486000C9486000C9486000C948600B8
:1000B0000C9486000C9486000C9486000C948600A8
:1000C0000C9486000C9486000C9486000C94860098
:1000D0000C9486000C9486000C9486000C94860088
:1000E0000C94860011241FBECFEFD1E2DEBFCDBF3E
:1000F00000E00CBF22E0A0E0B2E001C01D92A230FF
:10010000B207E1F70E9416020C947F020C940000E3
:100110001F920F920FB60F9211240BB60F922F93CE
:100120008F939F93EF93FF93CF93DF93CDB7DEB77A
:1001300087E490E0FC0180818823C9F488E490E0A2
:10014000FC018081882399F482E091E0FC01208108
:1001500082E091E02F7BFC01208381E390E0FC01B1
:10016000208181E390E02F7DFC01208331C087E472
:1001700090E0FC018081882399F081E390E0FC010C
:10018000208181E390E02F7DFC01208382E091E0DB
:10019000FC01208182E091E02064FC01208318C0F2
:1001A00088E490E0FC018081882391F082E091E076
:1001B000FC01208182E091E02F7BFC01208381E320
:1001C00090E0FC01208181E390E02062FC0120832B
:1001D0000000DF91CF91FF91EF919F918F912F912F
:1001E0000F900BBE0F900FBE0F901F9018951F928F
:1001F0000F920FB60F9211240BB60F922F938F937D
:100200009F93EF93FF93CF93DF93CDB7DEB787E450
:1002100090E0FC0180818F3F49F082E091E0FC0199
:10022000208182E091E02F7BFC0120830000DF91A0
:10023000CF91FF91EF919F918F912F910F900BBED6
:100240000F900FBE0F901F9018951F920F920FB630
:100250000F9211240BB60F922F938F939F93EF93CE
:10026000FF93CF93DF93CDB7DEB788E490E0FC0136
:1002700080818F3F49F081E390E0FC01208181E3A0
:1002800090E02F7DFC0120830000DF91CF91FF9152
:10029000EF919F918F912F910F900BBE0F900FBEFA
:1002A0000F901F901895CF93DF93CDB7DEB781E005
:1002B00091E0FC01208181E091E02064FC01208339
:1002C00080E390E0FC01208180E390E02062FC016B
:1002D000208382E091E0FC01208182E091E02F7B8D
:1002E000FC01208381E390E0FC01208181E390E028
:1002F0002F7DFC01208384E490E0FC01108285E4E2
:1003000090E023E0FC01208387E490E0FC01108270
:1003100088E490E0FC0110828EE690E027E0FC018A
:10032000208378940000DF91CF910895CF93DF93DD
:100330000F92CDB7DEB7898389818C39E4F1898149
:10034000843609F0C4F589818823DCF088E490E0E4
:10035000FC0110828981082E000C990B2FEF289F39
:10036000A001299F500D112424E630E0CA01B901F3
:100370000E945702CB019C0187E490E0FC0120839E
:100380001AC087E490E0FC0110828981082E000CDD
:10039000990B2FEF289FA001299F500D11242CE9C4
:1003A0003FEFCA01B9010E945702CB019C0188E4CA
:1003B00090E0FC01208300000F90DF91CF91089521
:1003C000CF93DF93CDB7DEB782E30E9496010000A2
:1003D000DF91CF910895CF93DF93CDB7DEB70000C3
:1003E000DF91CF910895CF93DF93CDB7DEB780E053
:1003F0000E9496010000DF91CF910895CF93DF9383
:10040000CDB7DEB70000DF91CF910895CF93DF9392
:10041000CDB7DEB70000DF91CF910895CF93DF9382
:10042000CDB7DEB70000DF91CF910895CF93DF9372
:10043000CDB7DEB70E945301809100029091010276
:100440008530910579F18530910509F0ACF784305C
:10045000910529F18430910509F074F783309105F5
:1004600021F18330910509F03CF78230910591F03C
:100470008230910509F004F7009721F08130910551
:1004800021F0DACF0E94F30111C00E94E0010E9426
:10049000EB010CC00E94F3010E94FE0107C00E9404
:1004A000060204C00E940E0201C00000C5CF97FBE7
:1004B000072E16F4009407D077FD09D00E946B0236
:1004C00007FC05D03EF4909581959F4F0895709557
:1004D00061957F4F0895AA1BBB1B51E107C0AA1F5E
:1004E000BB1FA617B70710F0A61BB70B881F991FD5
:1004F0005A95A9F780959095BC01CD010895F8947F
:02050000FFCF2B
:00000001FF
